PRAGMA foreign_keys=OFF;
BEGIN TRANSACTION;
CREATE TABLE migrations (id VARCHAR(12) PRIMARY KEY);
INSERT INTO migrations VALUES('0');
INSERT INTO migrations VALUES('1549496047');
INSERT INTO migrations VALUES('1551816486');
INSERT INTO migrations VALUES('1551895034');
INSERT INTO migrations VALUES('1552418531');
INSERT INTO migrations VALUES('1553029703');
INSERT INTO migrations VALUES('1554131520');
CREATE TABLE IF NOT EXISTS "job_specs" ("id" varchar(255) NOT NULL,"created_at" datetime,"start_at" datetime,"end_at" datetime,"deleted_at" datetime , PRIMARY KEY ("id"));
INSERT INTO job_specs VALUES('2e9400e2dda1469f88eafd6737e5acb7','2019-04-06 13:27:20.595397-07:00',NULL,NULL,NULL);
INSERT INTO job_specs VALUES('31e57fb277304d63923bde73b20d08e3','2019-04-06 13:27:44.190619-07:00',NULL,NULL,NULL);
INSERT INTO job_specs VALUES('4b3d4d43c2b4413f893801566dd33ff2','2019-04-06 13:27:57.81698-07:00',NULL,NULL,NULL);
CREATE TABLE IF NOT EXISTS "task_specs" ("id" integer primary key autoincrement,"created_at" datetime,"updated_at" datetime,"deleted_at" datetime,"job_spec_id" varchar(36) REFERENCES job_specs(id),"type" varchar(255) NOT NULL,"confirmations" bigint,"params" text );
INSERT INTO task_specs VALUES(1,'2019-04-06 13:27:20.597655-07:00','2019-04-06 13:27:20.597655-07:00',NULL,'2e9400e2dda1469f88eafd6737e5acb7','sleep',0,'{"until":1554582450}');
INSERT INTO task_specs VALUES(2,'2019-04-06 13:27:20.598281-07:00','2019-04-06 13:27:20.598281-07:00',NULL,'2e9400e2dda1469f88eafd6737e5acb7','httppost',0,'{"url":"http://127.0.0.1:6690/count"}');
INSERT INTO task_specs VALUES(3,'2019-04-06 13:27:20.598338-07:00','2019-04-06 13:27:20.598338-07:00',NULL,'2e9400e2dda1469f88eafd6737e5acb7','ethtx',0,'{"functionSelector":"fulfillOracleRequest(uint256,bytes32)"}');
INSERT INTO task_specs VALUES(4,'2019-04-06 13:27:44.190742-07:00','2019-04-06 13:27:44.190742-07:00',NULL,'31e57fb277304d63923bde73b20d08e3','httppost',0,'{"url":"http://127.0.0.1:6690/count"}');
INSERT INTO task_specs VALUES(5,'2019-04-06 13:27:57.817135-07:00','2019-04-06 13:27:57.817135-07:00',NULL,'4b3d4d43c2b4413f893801566dd33ff2','httpget',0,'{"get":"http://localhost:51861"}');
INSERT INTO task_specs VALUES(6,'2019-04-06 13:27:57.817188-07:00','2019-04-06 13:27:57.817188-07:00',NULL,'4b3d4d43c2b4413f893801566dd33ff2','jsonparse',0,'{"path":["last"]}');
INSERT INTO task_specs VALUES(7,'2019-04-06 13:27:57.817237-07:00','2019-04-06 13:27:57.817237-07:00',NULL,'4b3d4d43c2b4413f893801566dd33ff2','ethtx',0,'{"address":"0xaa664fa2fdc390c662de1dbacf1218ac6e066ae6","functionSelector":"setBytes(bytes32,bytes)"}');
CREATE TABLE IF NOT EXISTS "job_runs" ("id" varchar(255) NOT NULL,"job_spec_id" varchar(36) REFERENCES job_specs(id) NOT NULL,"result_id" integer,"run_request_id" integer,"status" varchar(255),"created_at" datetime,"completed_at" datetime,"updated_at" datetime,"initiator_id" integer,"creation_height" varchar(255),"observed_height" varchar(255),"overrides_id" integer,"deleted_at" datetime , PRIMARY KEY ("id"));
INSERT INTO job_runs VALUES('1dd04a86a0784e5b899e42ae551d85ba','2e9400e2dda1469f88eafd6737e5acb7',5,1,'completed','2019-04-06 13:27:24.006789-07:00','2019-04-06 13:27:36.009753-07:00','2019-04-06 13:27:36.010005-07:00',1,'123958','123964',2,NULL);
INSERT INTO job_runs VALUES('21c97bdccbef44af864a8dce0bd7c295','31e57fb277304d63923bde73b20d08e3',8,2,'completed','2019-04-06 13:27:48.00758-07:00','2019-04-06 13:27:48.012176-07:00','2019-04-06 13:27:48.012417-07:00',2,'123970','123970',7,NULL);
INSERT INTO job_runs VALUES('b49f26e37c2e48379ae06ce379bf7192','4b3d4d43c2b4413f893801566dd33ff2',13,0,'completed','2019-04-06 13:27:57.906604-07:00','2019-04-06 13:28:02.010954-07:00','2019-04-06 13:28:02.011173-07:00',3,NULL,'123977',10,NULL);
CREATE TABLE IF NOT EXISTS "task_runs" ("id" varchar(255) NOT NULL,"job_run_id" varchar(36) REFERENCES job_runs(id) ON DELETE CASCADE NOT NULL,"result_id" integer,"status" varchar(255),"task_spec_id" integer,"minimum_confirmations" bigint,"created_at" datetime , PRIMARY KEY ("id"));
INSERT INTO task_runs VALUES('06ea54384810454cbd01cd3c95930bc3','1dd04a86a0784e5b899e42ae551d85ba',3,'completed',1,0,'2019-04-06 13:27:24.009921-07:00');
INSERT INTO task_runs VALUES('cf50667d13e844728359d8196d7bbd1b','1dd04a86a0784e5b899e42ae551d85ba',4,'completed',2,0,'2019-04-06 13:27:24.010849-07:00');
INSERT INTO task_runs VALUES('00413f066ea141d2935d409cca424f3d','1dd04a86a0784e5b899e42ae551d85ba',5,'completed',3,0,'2019-04-06 13:27:24.011217-07:00');
INSERT INTO task_runs VALUES('ac585cb93f104293a22221fa0b321ba9','21c97bdccbef44af864a8dce0bd7c295',8,'completed',4,0,'2019-04-06 13:27:48.008426-07:00');
INSERT INTO task_runs VALUES('9a743ab576584cf1a5c2be7a81fb317b','b49f26e37c2e48379ae06ce379bf7192',11,'completed',5,0,'2019-04-06 13:27:57.907103-07:00');
INSERT INTO task_runs VALUES('c9507e7f7f9541a690a63af2a42a882c','b49f26e37c2e48379ae06ce379bf7192',12,'completed',6,0,'2019-04-06 13:27:57.907363-07:00');
INSERT INTO task_runs VALUES('0ff31b02f4694eb9af0c3ecffd6ab5fb','b49f26e37c2e48379ae06ce379bf7192',13,'completed',7,0,'2019-04-06 13:27:57.907616-07:00');
CREATE TABLE IF NOT EXISTS "run_results" ("id" integer primary key autoincrement,"cached_job_run_id" varchar(255),"cached_task_run_id" varchar(255),"data" text,"status" varchar(255),"error_message" varchar(255),"amount" varchar(255) );
INSERT INTO run_results VALUES(1,'','','{"address":"0xad6234d85973e6CF0349C2f83E6b1FEab17F9865","dataPrefix":"0x965d2ff0eb872cfd425c44e5adaaecc7a7b06238d0eeef2a6dca8f7f3d48e9040000000000000000000000000000000000000000000000000de0b6b3a76400000000000000000000000000005c15c62ffd5ef0621b6edf806436a1ab81781528042f2b6500000000000000000000000000000000000000000000000000000000000000000000000000000000000000000000000000000000000000005ca90cd8","functionSelector":"0x4ab0d190","msg":"hello_chainlink"}','',NULL,'1000000000000000000');
INSERT INTO run_results VALUES(2,'','','{"address":"0xad6234d85973e6CF0349C2f83E6b1FEab17F9865","dataPrefix":"0x965d2ff0eb872cfd425c44e5adaaecc7a7b06238d0eeef2a6dca8f7f3d48e9040000000000000000000000000000000000000000000000000de0b6b3a76400000000000000000000000000005c15c62ffd5ef0621b6edf806436a1ab81781528042f2b6500000000000000000000000000000000000000000000000000000000000000000000000000000000000000000000000000000000000000005ca90cd8","functionSelector":"0x4ab0d190","msg":"hello_chainlink"}','',NULL,'1000000000000000000');
INSERT INTO run_results VALUES(3,'1dd04a86a0784e5b899e42ae551d85ba','06ea54384810454cbd01cd3c95930bc3','{"address":"0xad6234d85973e6CF0349C2f83E6b1FEab17F9865","dataPrefix":"0x965d2ff0eb872cfd425c44e5adaaecc7a7b06238d0eeef2a6dca8f7f3d48e9040000000000000000000000000000000000000000000000000de0b6b3a76400000000000000000000000000005c15c62ffd5ef0621b6edf806436a1ab81781528042f2b6500000000000000000000000000000000000000000000000000000000000000000000000000000000000000000000000000000000000000005ca90cd8","functionSelector":"0x4ab0d190","msg":"hello_chainlink"}','pending_sleep',NULL,NULL);
INSERT INTO run_results VALUES(4,'1dd04a86a0784e5b899e42ae551d85ba','cf50667d13e844728359d8196d7bbd1b','{"address":"0xad6234d85973e6CF0349C2f83E6b1FEab17F9865","dataPrefix":"0x965d2ff0eb872cfd425c44e5adaaecc7a7b06238d0eeef2a6dca8f7f3d48e9040000000000000000000000000000000000000000000000000de0b6b3a76400000000000000000000000000005c15c62ffd5ef0621b6edf806436a1ab81781528042f2b6500000000000000000000000000000000000000000000000000000000000000000000000000000000000000000000000000000000000000005ca90cd8","functionSelector":"0x4ab0d190","msg":"hello_chainlink","result":"{\"headers\":{\"host\":\"127.0.0.1:6690\",\"user-agent\":\"Go-http-client/1.1\",\"content-length\":\"450\",\"content-type\":\"application/json\"},\"body\":{\"address\":\"0xad6234d85973e6CF0349C2f83E6b1FEab17F9865\",\"dataPrefix\":\"0x965d2ff0eb872cfd425c44e5adaaecc7a7b06238d0eeef2a6dca8f7f3d48e9040000000000000000000000000000000000000000000000000de0b6b3a76400000000000000000000000000005c15c62ffd5ef0621b6edf806436a1ab81781528042f2b6500000000000000000000000000000000000000000000000000000000000000000000000000000000000000000000000000000000000000005ca90cd8\",\"functionSelector\":\"0x4ab0d190\",\"msg\":\"hello_chainlink\"}}"}','completed',NULL,NULL);
INSERT INTO run_results VALUES(5,'1dd04a86a0784e5b899e42ae551d85ba','00413f066ea141d2935d409cca424f3d','{"address":"0xad6234d85973e6CF0349C2f83E6b1FEab17F9865","dataPrefix":"0x965d2ff0eb872cfd425c44e5adaaecc7a7b06238d0eeef2a6dca8f7f3d48e9040000000000000000000000000000000000000000000000000de0b6b3a76400000000000000000000000000005c15c62ffd5ef0621b6edf806436a1ab81781528042f2b6500000000000000000000000000000000000000000000000000000000000000000000000000000000000000000000000000000000000000005ca90cd8","ethereumReceipts":[{"blockNumber":123963,"transactionHash":"0x0cc4ecf1b95a7d2f19954d25ff607ad74e47e94203dc50a26bc5e03eba0e21a0"}],"functionSelector":"0x4ab0d190","msg":"hello_chainlink","result":"0x0cc4ecf1b95a7d2f19954d25ff607ad74e47e94203dc50a26bc5e03eba0e21a0"}','completed',NULL,NULL);
INSERT INTO run_results VALUES(6,'','','{"address":"0x4f3c544f678e94967fae6ebd130dc995efeab789","topics":["0xd226ed2bc8a4081ee6d62540525cd9a44aa022eca68e344a7f7b924a75faeed5","0x68656c6c6f5f636861696e6c696e6b0000000000000000000000000000000000"],"data":"0x","blockNumber":"0x1e442","transactionHash":"0x7cafd5c0a891f2150e5d2ba5a7caed3078b81618efeaaca68d792d3509be951a","transactionIndex":"0x0","blockHash":"0x93962ba8b6dddca73922953dee8bcb6449804d58f6f222b1ef02f829098b43bf","logIndex":"0x0","removed":false}','',NULL,NULL);
INSERT INTO run_results VALUES(7,'','','{"address":"0x4f3c544f678e94967fae6ebd130dc995efeab789","topics":["0xd226ed2bc8a4081ee6d62540525cd9a44aa022eca68e344a7f7b924a75faeed5","0x68656c6c6f5f636861696e6c696e6b0000000000000000000000000000000000"],"data":"0x","blockNumber":"0x1e442","transactionHash":"0x7cafd5c0a891f2150e5d2ba5a7caed3078b81618efeaaca68d792d3509be951a","transactionIndex":"0x0","blockHash":"0x93962ba8b6dddca73922953dee8bcb6449804d58f6f222b1ef02f829098b43bf","logIndex":"0x0","removed":false}','',NULL,NULL);
INSERT INTO run_results VALUES(8,'21c97bdccbef44af864a8dce0bd7c295','ac585cb93f104293a22221fa0b321ba9','{"address":"0x4f3c544f678e94967fae6ebd130dc995efeab789","blockHash":"0x93962ba8b6dddca73922953dee8bcb6449804d58f6f222b1ef02f829098b43bf","blockNumber":"0x1e442","data":"0x","logIndex":"0x0","removed":false,"result":"{\"headers\":{\"host\":\"127.0.0.1:6690\",\"user-agent\":\"Go-http-client/1.1\",\"content-length\":\"467\",\"content-type\":\"application/json\"},\"body\":{\"address\":\"0x4f3c544f678e94967fae6ebd130dc995efeab789\",\"blockHash\":\"0x93962ba8b6dddca73922953dee8bcb6449804d58f6f222b1ef02f829098b43bf\",\"blockNumber\":\"0x1e442\",\"data\":\"0x\",\"logIndex\":\"0x0\",\"removed\":false,\"topics\":[\"0xd226ed2bc8a4081ee6d62540525cd9a44aa022eca68e344a7f7b924a75faeed5\",\"0x68656c6c6f5f636861696e6c696e6b0000000000000000000000000000000000\"],\"transactionHash\":\"0x7cafd5c0a891f2150e5d2ba5a7caed3078b81618efeaaca68d792d3509be951a\",\"transactionIndex\":\"0x0\"}}","topics":["0xd226ed2bc8a4081ee6d62540525cd9a44aa022eca68e344a7f7b924a75faeed5","0x68656c6c6f5f636861696e6c696e6b0000000000000000000000000000000000"],"transactionHash":"0x7cafd5c0a891f2150e5d2ba5a7caed3078b81618efeaaca68d792d3509be951a","transactionIndex":"0x0"}','completed',NULL,NULL);
INSERT INTO run_results VALUES(9,'','','{}','',NULL,NULL);
INSERT INTO run_results VALUES(10,'','','{}','',NULL,NULL);
INSERT INTO run_results VALUES(11,'b49f26e37c2e48379ae06ce379bf7192','9a743ab576584cf1a5c2be7a81fb317b','{"result":"{\"last\": \"3843.95\"}"}','completed',NULL,NULL);
INSERT INTO run_results VALUES(12,'b49f26e37c2e48379ae06ce379bf7192','c9507e7f7f9541a690a63af2a42a882c','{"result":"3843.95"}','completed',NULL,NULL);
INSERT INTO run_results VALUES(13,'b49f26e37c2e48379ae06ce379bf7192','0ff31b02f4694eb9af0c3ecffd6ab5fb','{"ethereumReceipts":[{"blockNumber":123976,"transactionHash":"0x911f4d74354bb985dcd85ec22a2a55d02153da73c6cfcf939757a7ba738aabba"}],"result":"0x911f4d74354bb985dcd85ec22a2a55d02153da73c6cfcf939757a7ba738aabba"}','completed',NULL,NULL);
CREATE TABLE IF NOT EXISTS "initiators" ("id" integer primary key autoincrement,"job_spec_id" varchar(36) REFERENCES job_specs(id),"type" varchar(255) NOT NULL,"created_at" datetime,"schedule" varchar(255),"time" datetime,"ran" bool,"address" blob,"requesters" text,"deleted_at" datetime );
INSERT INTO initiators VALUES(1,'2e9400e2dda1469f88eafd6737e5acb7','runlog','2019-04-06 13:27:20.59687-07:00','',NULL,0,X'0000000000000000000000000000000000000000','0x5c15c62fFd5Ef0621b6edf806436a1AB81781528',NULL);
INSERT INTO initiators VALUES(2,'31e57fb277304d63923bde73b20d08e3','ethlog','2019-04-06 13:27:44.190677-07:00','',NULL,0,X'4f3c544f678e94967fae6ebd130dc995efeab789','',NULL);
INSERT INTO initiators VALUES(3,'4b3d4d43c2b4413f893801566dd33ff2','web','2019-04-06 13:27:57.817062-07:00','',NULL,0,X'0000000000000000000000000000000000000000','',NULL);
CREATE TABLE IF NOT EXISTS "txes" ("id" integer primary key autoincrement,"from" blob NOT NULL,"to" blob NOT NULL,"data" blob,"nonce" bigint,"value" varchar(255),"gas_limit" bigint,"hash" blob,"gas_price" varchar(255),"confirmed" bool,"hex" text,"sent_at" bigint );
INSERT INTO txes VALUES(2,X'9ca9d2d5e04012c9ed24c0e513c9bfaa4a2dd77f',X'ad6234d85973e6cf0349c2f83e6b1feab17f9865',X'4ab0d190965d2ff0eb872cfd425c44e5adaaecc7a7b06238d0eeef2a6dca8f7f3d48e9040000000000000000000000000000000000000000000000000de0b6b3a76400000000000000000000000000005c15c62ffd5ef0621b6edf806436a1ab81781528042f2b6500000000000000000000000000000000000000000000000000000000000000000000000000000000000000000000000000000000000000005ca90cd80000000000000000000000000000000000000000000000000000000000000000',562,'0',500000,X'0cc4ecf1b95a7d2f19954d25ff607ad74e47e94203dc50a26bc5e03eba0e21a0','20000000000',1,'0xf9012e8202328504a817c8008307a12094ad6234d85973e6cf0349c2f83e6b1feab17f986580b8c44ab0d190965d2ff0eb872cfd425c44e5adaaecc7a7b06238d0eeef2a6dca8f7f3d48e9040000000000000000000000000000000000000000000000000de0b6b3a76400000000000000000000000000005c15c62ffd5ef0621b6edf806436a1ab81781528042f2b6500000000000000000000000000000000000000000000000000000000000000000000000000000000000000000000000000000000000000005ca90cd80000000000000000000000000000000000000000000000000000000000000000820a96a0b31b9f8e2940806e46042857046468e11ee145505bdfa0cc9975ec4cd9ccbceea02671560c02566c6a30f43a0ec238e435696f836fde66445a233a93cfe1977fff',123961);
INSERT INTO txes VALUES(4,X'9ca9d2d5e04012c9ed24c0e513c9bfaa4a2dd77f',X'aa664fa2fdc390c662de1dbacf1218ac6e066ae6',X'2e28d0840000000000000000000000000000000000000000000000000000000000000384',565,'0',500000,X'911f4d74354bb985dcd85ec22a2a55d02153da73c6cfcf939757a7ba738aabba','20000000000',1,'0xf88d8202358504a817c8008307a12094aa664fa2fdc390c662de1dbacf1218ac6e066ae680a42e28d0840000000000000000000000000000000000000000000000000000000000000384820a95a02e2b05468b3b644db4f5280e1e3d7c79af59c23c8f8404c404b25d549cd7ae3aa0068a6f31c49ecbd6e944673729d6cbcb4d657d2cf7e37e108bed7e17dd0c3b32',123974);
CREATE TABLE IF NOT EXISTS "tx_attempts" ("hash" blob NOT NULL,"tx_id" bigint,"gas_price" varchar(255),"confirmed" bool,"hex" text,"sent_at" bigint,"created_at" datetime , PRIMARY KEY ("hash"));
INSERT INTO tx_attempts VALUES(X'0cc4ecf1b95a7d2f19954d25ff607ad74e47e94203dc50a26bc5e03eba0e21a0',2,'20000000000',1,'0xf9012e8202328504a817c8008307a12094ad6234d85973e6cf0349c2f83e6b1feab17f986580b8c44ab0d190965d2ff0eb872cfd425c44e5adaaecc7a7b06238d0eeef2a6dca8f7f3d48e9040000000000000000000000000000000000000000000000000de0b6b3a76400000000000000000000000000005c15c62ffd5ef0621b6edf806436a1ab81781528042f2b6500000000000000000000000000000000000000000000000000000000000000000000000000000000000000000000000000000000000000005ca90cd80000000000000000000000000000000000000000000000000000000000000000820a96a0b31b9f8e2940806e46042857046468e11ee145505bdfa0cc9975ec4cd9ccbceea02671560c02566c6a30f43a0ec238e435696f836fde66445a233a93cfe1977fff',123961,'2019-04-06 13:27:30.037744-07:00');
INSERT INTO tx_attempts VALUES(X'911f4d74354bb985dcd85ec22a2a55d02153da73c6cfcf939757a7ba738aabba',4,'20000000000',1,'0xf88d8202358504a817c8008307a12094aa664fa2fdc390c662de1dbacf1218ac6e066ae680a42e28d0840000000000000000000000000000000000000000000000000000000000000384820a95a02e2b05468b3b644db4f5280e1e3d7c79af59c23c8f8404c404b25d549cd7ae3aa0068a6f31c49ecbd6e944673729d6cbcb4d657d2cf7e37e108bed7e17dd0c3b32',123974,'2019-04-06 13:27:57.917607-07:00');
CREATE TABLE IF NOT EXISTS "heads" ("hash" varchar,"number" bigint NOT NULL , PRIMARY KEY ("hash"));
INSERT INTO heads VALUES('6fc6ff531e703d5a6173aa2524b4a8d302dafc0fda6a214897d1e4329ced67d7',123699);
INSERT INTO heads VALUES('28227c720c813dbdd0d873cf9cbcc5ed84424595bef8f6b5990331dd58ee5245',123700);
INSERT INTO heads VALUES('c26cd49891706ed00bb5d743731a409bc319045c0efe0e7f1ccc46905dc3998a',123701);
INSERT INTO heads VALUES('dc735a87f8b9898da83d792bea1bd912c8b02d43b1b84567a7752e4855aca590',123702);
INSERT INTO heads VALUES('5d4781f4a3bd326c9bf6cb554126ad4301e0bf8665b505158767b248bcba6865',123703);
INSERT INTO heads VALUES('79ddb1c14c1731004134937a6f23b751113383ca54483117a43c0f552f329631',123704);
INSERT INTO heads VALUES('be48860ae470b35d04cd74ab8c9ff73c69011ad4fa5e7e2bb635824c2da52473',123705);
INSERT INTO heads VALUES('d8daa7b33cd2b957c70a244ee66e5c725ecd2e1b9c224ec1973fddfa056465f2',123706);
INSERT INTO heads VALUES('7737d6b40e1c4797f2b942d9b7f92169e524d6b4f0da580ca2a1b8cbf57837e0',123707);
INSERT INTO heads VALUES('440917ceabd284785600eedd1bc751d66595a91d93e83384893f1290930d1e9a',123708);
INSERT INTO heads VALUES('2347d2916016d0abfff5ba9326a54090ffb640fe95778c3bc1419d930f6dc7ce',123709);
INSERT INTO heads VALUES('f683d214d33c57d585c4e9f7055e0be5be3921a870e599e54bd4b25873d60a21',123710);
INSERT INTO heads VALUES('68b2849b277310c18a7337e2271e1c51a65a345e78e5fa268131044f5e3b6c93',123711);
INSERT INTO heads VALUES('cf3b77eccf47ac08f8f77fb6ed758b72d00fb3f1824599bb0535b986b5763765',123712);
INSERT INTO heads VALUES('5ff042205138c22f85436d676b7a10d7f173d9dcd42c384e5e83a403fe4ab0c9',123713);
INSERT INTO heads VALUES('145809528a6b149ef9ebb7361a29167bdf48e76d8cda00bc08db531afb496fd7',123714);
INSERT INTO heads VALUES('65cc00c1fb8bd90bc46335a9e614e7e404415893e7402ee4870e24208bf3ef83',123715);
INSERT INTO heads VALUES('1b9d29ea056616768f4d0c6a50ce687f866e174d4cb79903ba642e1f0cd2e1b0',123940);
INSERT INTO heads VALUES('72b43e11a1b93539e6304f0e3e2eb35ca239e17e2567c1ececc72bcc87a92b19',123941);
INSERT INTO heads VALUES('8da8cb83916a6a6ebab1ae059ba5289aaee1a69150c8c54a4b113b4ddc6a72ac',123942);
INSERT INTO heads VALUES('0b353e4c593438f2113f5932f727821acf21cc4e37cd3f8b261f35474f44d7b1',123943);
INSERT INTO heads VALUES('54cf90d60b38db2b24a23da068bc1f8b1f999a9cd0e95c8d46345a74a5d6157a',123944);
INSERT INTO heads VALUES('fb746fc95ff4f5cd91d46ad7368a3a2115f7e254a1c14c820e4f9359b7612053',123945);
INSERT INTO heads VALUES('f1cf50d941efb78db31d192601dde69f01af8f2a90ba05d92c0eaecab817e64f',123946);
INSERT INTO heads VALUES('a42121977c16ba685e59a240eccc1195133efe2d2c3e06ab06c922f648cb6788',123947);
INSERT INTO heads VALUES('4f402ac566f47f378c6ebb87db4a21e52ba4ca71146f890d0047f21766f26c00',123948);
INSERT INTO heads VALUES('4c6203a7bde975d306d490c2bc73f2c03e8c14438ad2b03e7c7f3e27a2b365a8',123949);
INSERT INTO heads VALUES('bd2118aab07f8454a0bade94054a6f77ebf5f9cac5bddea9fc143670f59b6a83',123950);
INSERT INTO heads VALUES('aa7492df20a68e5bb844b9c488a00238eb1aeb41682ea9ca3f68ceebf61772ae',123951);
INSERT INTO heads VALUES('07e66f9925f16edd605cd9cc78bfb15b7f63e58b237b57a95ba38cf2b4936eec',123952);
INSERT INTO heads VALUES('61cd44c494bda1f81b9917abc38d6c341885cdc17126d15922a7d7324639029d',123953);
INSERT INTO heads VALUES('2e5e48d1f42ad79e3f04bc455c729938b0b4736cc07d6e26c0702192737c93cd',123954);
INSERT INTO heads VALUES('7525c2c04bac510e798f46c3e04fe35114d55939fb39c0b14f15106737701752',123955);
INSERT INTO heads VALUES('7409c5fb4602b0b1b449877d68c745569bef0bdc5c3dfe078e52e4f6b32f6b50',123956);
INSERT INTO heads VALUES('a915eb44a0e1824fd4d40a805692ade77bb905c781d6e9c7a6dec1e70b136f1e',123957);
INSERT INTO heads VALUES('c19c943bf51df8d9847a463a915f432a11f8789f9c85e359b862213f5f195e12',123958);
INSERT INTO heads VALUES('cfb0137065850250fff1ace7b31176012e6a60156fcc9259a5e85bb7c4e0adb7',123959);
INSERT INTO heads VALUES('a9119c4e1a0a46c908d3aa2b7b230fafe5d6789346fe8b4e38e064b165b4ec0f',123960);
INSERT INTO heads VALUES('62834a3cd3b12cd9521d3080b094902fef8d4d5689650891f0828317cb294eaf',123961);
INSERT INTO heads VALUES('d1b7376711fd249d2afc064aa9a8ec8aaed5bb909d0c267ffd2e9c51fbaa392a',123962);
INSERT INTO heads VALUES('f21d7db531b4a19a4f4535a9649bf1d227552c0a14b946df872d07694a3b170e',123963);
INSERT INTO heads VALUES('9e360cf3f960e018eba08a22d52ad2db94144baaba2ea571fe8478e8b6565f80',123964);
INSERT INTO heads VALUES('e35b3e4b03a0e021422185e0e52a1eb8cc9a79f1577d0a576e561380ab270efc',123965);
INSERT INTO heads VALUES('27f000dc6721530de717b12b1af2057d847732b38d59e1bb8785c27a1b9b7578',123966);
INSERT INTO heads VALUES('45911d4a8484ff702a3bebee3352e097805f94e1b581acdb516f0fa9d7c562ed',123967);
INSERT INTO heads VALUES('ed22fb9756d20b1bb54cf70bef8f992fb1721fdb4e6ad5d7c0d6b6b58183f74f',123968);
INSERT INTO heads VALUES('f4066fff21930bf833257dcaaa70d1b692898ee92a0169956507fe03f4bae33c',123969);
INSERT INTO heads VALUES('93962ba8b6dddca73922953dee8bcb6449804d58f6f222b1ef02f829098b43bf',123970);
INSERT INTO heads VALUES('3fe7891d36561eef8008dceea09826e9ee5f9228aa8ae764ece9d4a6d22f8d21',123971);
INSERT INTO heads VALUES('68cbab261a71e1d690acdd22956d0793bd7350283d6cfdc86f182e05129a570c',123972);
INSERT INTO heads VALUES('30c9e0b60a5e60b008bfca866c8a50d3b37d311f5d7550e4ed552dda3dea40b2',123973);
INSERT INTO heads VALUES('6785115dab5370007f3c4aed0945153894875c99006e2ffb7a9b3f1b5f6ff658',123974);
INSERT INTO heads VALUES('08653db62c662ad43266cf7d0ef8fdade774f2e0c2c1213f3d00739e9b3fe749',123975);
INSERT INTO heads VALUES('837635acb64967edde8f88332f9626183ccee06c1213a9e97a72853494047d9f',123976);
INSERT INTO heads VALUES('dfa8ed7648528a32c6b58dd0cd0e4510d097f59d3f1463b3e847a26fd920dd72',123977);
INSERT INTO heads VALUES('b07ff1f5bbd58feda063a446e69bb6ccce0fa2e6430adb03c6fde8b98ce12e34',123978);
INSERT INTO heads VALUES('ff234337f9c54c2ae17c1d71dfb14e324f704028e155323c6c400598c60316e6',123979);
INSERT INTO heads VALUES('06afc01542dfe45e94f6bb40931fe998646f176c02d8f87df2f59790353d156d',123980);
INSERT INTO heads VALUES('e7e5a868589a9141ac0b029ac0b1702460561898884bb690cb9376e987c5d20c',123981);
INSERT INTO heads VALUES('fa249c1ffdc9339f1aa56c98cc82543d2ee52cb3c58b7548797ff1962dc6da09',123982);
INSERT INTO heads VALUES('3cf161208c0051a30ecf65102954d0d023d0989f0c61c30deaef045a52c5f1b1',123983);
INSERT INTO heads VALUES('fdd40161483a8a9940f94c49baf2299050d85e22acca9b23d3d491a623f92521',123984);
INSERT INTO heads VALUES('0aabafce22dea94bcf20b13a010fd8977639908fa93bf091fa76a387fdcb8ec2',123985);
INSERT INTO heads VALUES('d5a614a1216472f8b00e737cd001b1db768a387874b985fbc4702252c8c648dc',123986);
INSERT INTO heads VALUES('34095ee582e85ccb75035e8624739cb9f948b03f5e33343f5039bb80bf633b32',123987);
INSERT INTO heads VALUES('02fa63cd3c447317bf5ff1d3bae847ba834fae26d18d9eedc48db4e80a33e367',123988);
INSERT INTO heads VALUES('34674542f222b0de5b878c5872abde878e6b0b79835de68f04243ed66af20f79',123989);
INSERT INTO heads VALUES('8c5a23f4f16062bed9ac7f060aebdedad3f712965816186beee215d7ffd3c9e3',123990);
INSERT INTO heads VALUES('aa191ec5130ee52ee0390a3022dae534394ec7c2918bbd1275803823109f08b1',123991);
INSERT INTO heads VALUES('866707ac6ffde0456dbb5aaa672b5e8675a1d98980f98bcfce5123fc9bb4ae5e',123992);
INSERT INTO heads VALUES('c7523b50d0e086fe4cce536cbd83509b922bc154232e3a471622042bbf84d383',123993);
INSERT INTO heads VALUES('f1729f53d06799d997fbbd3f6354ea2c98ba4e67a14a5dd3866eaf7c6a29a19d',123994);
INSERT INTO heads VALUES('ef6b2bac711837df8362097524e9e078634bd5f611ad3b842d58fd0963a18c13',123995);
INSERT INTO heads VALUES('288f24788132f18216163e76a3ae8228af959de39f8fce41856960b9d60eca55',123996);
INSERT INTO heads VALUES('f73e4f05bf8bf662f7de20e8b0034dab06994b0deb80ff484525913a7e9a9818',123997);
INSERT INTO heads VALUES('1c5048c138815e3064c55b22e2c4826591b51a0885892f863d35cc14dfbe8eec',123998);
INSERT INTO heads VALUES('3b064985e354cec0cd63044e5bfa408827d9004a793a178943450b59ccb2bad8',123999);
INSERT INTO heads VALUES('ab353904a071e79f586e272621efd81bfe52356da4aa9f29d1af70464e0fd516',124000);
INSERT INTO heads VALUES('a24ef071b59d64cc9906666d6f9efabed8dcf01fab339d017139e9dc1b442c57',124001);
INSERT INTO heads VALUES('47be849ca9f920320ebac419b2adc99fa8456a640fb668e0d7e9d69ae365e61b',124002);
INSERT INTO heads VALUES('7ddb42f57e3cba54d26689e3790271fde61dfba14bd7f957737ffbff691c0684',124003);
INSERT INTO heads VALUES('83b444d8060be5ca33ad31e14480282304a68d027283f2acfc9e01878873d00b',124004);
INSERT INTO heads VALUES('a7e3acde261a2770070970ac8097aaa0046f9a0b52dcbe34211bda5a906b44c6',124005);
INSERT INTO heads VALUES('3341dbe605de5cad303983b3a0939033a357b2655ff6af43399fba26b69a6dfc',124006);
INSERT INTO heads VALUES('5982c16d045e459fb980d53cd0cfae0b9667ad66594b4b74421dc1510b134dc5',124007);
INSERT INTO heads VALUES('659912549e37a041b0bd6f54fb4fe3306682354b605d7251da37d255b048d3dd',124008);
INSERT INTO heads VALUES('3202e39673ff27718ea5ce54cdc4a8591ad368a3d2d608630ae4ef04f51e7225',124009);
INSERT INTO heads VALUES('3e59574c5ca623af245214f537d05bb52edd1bf78d2a60f034ebc831bc934fe2',124010);
INSERT INTO heads VALUES('4aeb84b28a8e490d44763ec8ec82e5f9ef60cbec7e0365cde763e58f8b2d1928',124011);
INSERT INTO heads VALUES('9b2c4faa2d4e0d43b3a7faf2c5dd2e3730f6ccb40ddce0339a798019eec3d0e7',124012);
INSERT INTO heads VALUES('a6c91edaf7ad4792826a7301d206ff4d619765509a1a4ed765415bc4cf0083fa',124013);
INSERT INTO heads VALUES('d6b49f431641c20c57f02d29ca1601042fe9d4267ac2d4a13f9f0529c7350a62',124014);
INSERT INTO heads VALUES('41863179150ed6b1658beaf1b3641ec7bb8e3247da069579e43fed67517b9de8',124015);
INSERT INTO heads VALUES('627acfb88fd54f44ff1c4a0ea38425f96c52a527133690de58f182c3a3dd5f09',124016);
INSERT INTO heads VALUES('5cd3463f96b62872aac054d95ba30ba5bdcf4dfcee7de5342012516aca08fdf7',124017);
INSERT INTO heads VALUES('510e2bdea9b0a86d7197aab7d339a560008469aea644ecce926e1b6cbb51a6e0',124018);
INSERT INTO heads VALUES('b6849fdd663167cbfba2d88f04044801b50ec261b4a829bd1eefb9fb9ee24bee',124019);
INSERT INTO heads VALUES('3ce3791e0f64759c9b0fdcd006f1f92e49940dfe77ed417f16d0eebb504cd6bf',124020);
INSERT INTO heads VALUES('88c89baf7f16b5ac3392bcf357cdf3956cdd9a6762e4aa3ba185a92d798eb71f',124021);
INSERT INTO heads VALUES('ec561fa51589d9e0667846abbf40aea649c211fc417831667ac175ff34e304b8',124022);
INSERT INTO heads VALUES('d4074c3016ddc314af474a7a233c2b5e84d6277792abea1890f40cc328c21bd3',124023);
INSERT INTO heads VALUES('1d45e68a3c3b26dc9ed051bea00196e2ff9b0759df07c8a20ecf07dc31e76a45',124024);
INSERT INTO heads VALUES('3718be0ae3425a8f4981ef1c9a48a60b5ca63242076f078ff8ac28ddcd65e074',124025);
INSERT INTO heads VALUES('07b6f71ac6a39b97774cc6839ce91af22425e308f2e48abfd158cdcc81feb332',124026);
INSERT INTO heads VALUES('1d9d09f9f23f6474552790943249f81ecab8dfe4272fd88bc6388cd545fb020a',124027);
INSERT INTO heads VALUES('0c4296e81db327e33c9ad6d81cda3b687926d17913748b1e9863db8bf22798ef',124028);
INSERT INTO heads VALUES('e3a6ca94a2463ff748f3ea6f287eb9d1f8fe973965fb0e1221e89c851ad178db',124029);
INSERT INTO heads VALUES('722ad8af254bfe5a7542582e0dc9fbe002b9d5f56aebd2a3b1ead77a2842345e',124030);
INSERT INTO heads VALUES('0f6962f9f5989975b5e176b83725798a74d4da4b699ab3592b0a165d831ceb89',124031);
INSERT INTO heads VALUES('30105f3b3fd1423b940b75f73341429583a78160d0d42d012928fdc4a31935a1',124032);
INSERT INTO heads VALUES('727f28462de1b6a08b26c4db0dab7e13a3730d7b41191c1938df4646baa6286b',124033);
INSERT INTO heads VALUES('7358ca556d7f771b6977cb3c6fd5ba1b26245266b0a6bb5bc256b10529f262e7',124034);
INSERT INTO heads VALUES('c2096d87c832451be0716d0465d4dbd0e71a929c4db6e11504caf036f75d051c',124035);
INSERT INTO heads VALUES('26aea4629fed7f53ea5aea503628591a3b473b171ef65bef318eda88bf7fba9a',124036);
INSERT INTO heads VALUES('7cb4dbeed2ecff8af06cfa1c37edbd6a429bd917acbe25910054ab24f740392a',124037);
INSERT INTO heads VALUES('dc57a6dbfa22d4623d35679af802254b5f5577caf88a744ef77853f1ebc9c177',124038);
INSERT INTO heads VALUES('df616fb48aa37d8810e5ae2bd44eac424cb97d72008c9c815ffbbd6b76203645',124039);
INSERT INTO heads VALUES('f9c315b48d0914eebb43e717d316c60ffcd9471dbaf9fdde3582c585a82f787e',124040);
INSERT INTO heads VALUES('5a9523136ff10a95eced35b29777fcbba538a978d5f4c518df2da439b0d881ca',124041);
INSERT INTO heads VALUES('14b9f039094c100f16033394d3e92d6b951f01d37adb7bac133f8c66ed62b3b2',124042);
INSERT INTO heads VALUES('98c2bea50194a454ce10aa84107f2f455102cd3986afc295a07d75e687ea62c5',124043);
INSERT INTO heads VALUES('a9f1e76ed5b575ccf16fdaf06b082101745e4839fac0b7fe98dccada16303dd6',124044);
INSERT INTO heads VALUES('8c507635dd1bb003d765d95a70f897469ac2a63a30a533bd28cc67a530f50645',124045);
INSERT INTO heads VALUES('2645fd68dc020a110a05e98050b7a2df597b4e78f33bf7852cc48f6604f6fe8c',124046);
INSERT INTO heads VALUES('8d922bad2b8db66c254b9dcace734eeed522f5d20da81ca299ae4e3e9bfc0f3f',124047);
INSERT INTO heads VALUES('d53e4e8ad42e09065c47138082311800f21ca75b929bb66301d7530ea62d3770',124048);
INSERT INTO heads VALUES('9f0e3eac83180c3d65e2c8d8d7e72cb077bd719e10c39808d204e1cc5fd2d809',124049);
INSERT INTO heads VALUES('1d7fa098a7eb4bac79846d3b200f2a7676b02de895a65e94ef86d3d4acfe23f3',124050);
INSERT INTO heads VALUES('0b111974d1ea3ab7c5c586dddef8ddd83bd996d560e20793a27956c00ed39c14',124051);
INSERT INTO heads VALUES('9fae8bac7578bf845d8acc9972f7ea7276ecb8aa84d3369019958458ed85826a',124052);
INSERT INTO heads VALUES('277a7ed328e9af9e755d009a7c73533e299a3ce4ae55d021c526d0c80cfc9bc1',124053);
INSERT INTO heads VALUES('0d4b672bd05ecd5752faa5291345318fac41a71bc206dc34f84534000770a13e',124054);
INSERT INTO heads VALUES('03927070da7c81892a0698b1f39197a85c8c1ea28cf652de09924d33ef5e0684',124055);
INSERT INTO heads VALUES('280ddfccef1ceb356160a8b860b54238a5d77ee51626035d6b785e560fd8ad5b',124056);
INSERT INTO heads VALUES('f4792ee400dfbdbf564d3ba3b2588209c778781f993f3c7604194f12e855104f',124057);
INSERT INTO heads VALUES('422b721e6573017d133d56f08e1f299bc325733d3dbf40d817cf831302495c1c',124058);
INSERT INTO heads VALUES('5d820803ab0dc6beabd536fa7a310ab4cdae058d08ab5406b3dadd93d3e920a5',124059);
INSERT INTO heads VALUES('e3323638f0ff2ee23956d584d9c81e3c1b6955eaa3a5d52cf03582d8dab6b7c2',124060);
INSERT INTO heads VALUES('095c3d3f62f44643c7402b6f1dbb7246187485166ed3d0137242707154d4946c',124061);
INSERT INTO heads VALUES('b48ccc15bd7e0fc9957b98f067bfc4ca16e1e6ba8e2be48c510391c92621a60a',124062);
INSERT INTO heads VALUES('11328c904e36c0fd4de32301183a900bb2da2071f28a74f1da99155867ccad72',124063);
INSERT INTO heads VALUES('bc2ce50246a4e6723b4ab5c2a9ad98d91c976e573074a176ea99f7dfa2ac814f',124064);
INSERT INTO heads VALUES('0aa5ca2e1c5094eded8d32f309e3ab5765738e9775f6dd435f71e1f6228d9e3a',124065);
INSERT INTO heads VALUES('d1e3849f21565e4dcdb97a9d80b96b86520ad526e1c560f7e42ea78c7c167b2c',124066);
INSERT INTO heads VALUES('0b40cdb39ef9d7e5762a3132f466757ab826a49015999a1146731ca61ded9023',124067);
INSERT INTO heads VALUES('2f2eaab27c915183317255861e6f26937dcf4680ce763fdf0190bdd2662d9441',124068);
INSERT INTO heads VALUES('39fc98cdcb8ce81044a55bf2f2000588c2aa791f75f3ad8fbb0789892f7c7316',124069);
INSERT INTO heads VALUES('ac9c704629da9c3aa4561de7b87281057c7192312145b818009b0d305888711c',124070);
INSERT INTO heads VALUES('b0a26849de7e96685ee134383defd663b72c389447a187ebcc6f0beeeb978e92',124071);
INSERT INTO heads VALUES('43468c0de468f6bc431d63e6a4b0175243b68b0357abf944921cdecc81a2c353',124072);
INSERT INTO heads VALUES('34a97b05f1351f0967f892094b4dc402b83d3053f2825d4ad75c5b352147ea25',124073);
INSERT INTO heads VALUES('0c49382099b254818c963e034ecacb43a0e4fbd93da55cdfc9806c86b1f0f6e4',124074);
INSERT INTO heads VALUES('9d7b905705fb583ac04b6cecfe17ae1516258da424d8940bd591fb0d80261b11',124075);
INSERT INTO heads VALUES('19a437b807bcc1dae33f95fbb3387e05c2db2c9ab8650dc42caa3fe70b44d68e',124076);
INSERT INTO heads VALUES('2e156d6e49b0149b37658c336db01964965833e6b6dc8c69d0830970375dc343',124077);
INSERT INTO heads VALUES('91f0bfc68497af85af7296b4ceec1f311587fbe76d0d1cb6d8925b7134bda167',124078);
INSERT INTO heads VALUES('81d99ec4791f8983121da393eb11b37ecb3d225f1952764f74cd22b583437fc6',124079);
INSERT INTO heads VALUES('01d366ff865e9d72a53131ecdb11f275dab5439989606e6f3e7dfbfbedbbbbb4',124080);
INSERT INTO heads VALUES('e07ba5c33726433f3bfcb918d09f8aa063fb548210387f1affb7e079ae005e0f',124081);
INSERT INTO heads VALUES('363d661dd3c7350eb0bde9a6827ffd4853c5852e456e8ae21b3ddbd6811f966d',124082);
INSERT INTO heads VALUES('6172388aa462bd7dee168b038e5a0c5f5cc789b353134ced0f22b2213c470287',124083);
INSERT INTO heads VALUES('a6f5c596256c485a5ea041de36263c0d42227136e54b56f66ab5d6c918623f22',124084);
INSERT INTO heads VALUES('d65d73729a5cc80120b14b65a042af0c57862c793d6e90a95605f38143ea0246',124085);
INSERT INTO heads VALUES('2b3ceab9e219617f76c7728e1424cc1cfcdb8ce02d7926ae7f20fe9c5cf64eec',124086);
INSERT INTO heads VALUES('bb4c96805a87367d25614776a457f9d577755f299a31b14b7e151caf72b54fea',124087);
INSERT INTO heads VALUES('7b681c50286087ca2838150b104ae23bb7ead830c7f6f2c4ad6bdc40965c955c',124088);
INSERT INTO heads VALUES('dbd4db47331cfc345e4b667b2037b001171bbe94c0143759d5d1319381743948',124089);
INSERT INTO heads VALUES('00bcb322b159623049f54f536d77b664916d438cb164ba8cec4832312a8b62f4',124090);
INSERT INTO heads VALUES('449d9f077f8242aeafd289de507929cbdbb7d569cee78f4f57cf556ed593e660',124091);
INSERT INTO heads VALUES('f4bcafbe06cf83d82984a03527a064cb47b1e23f7de13678178d4e74fd641a2a',124092);
INSERT INTO heads VALUES('7d93164435443795d1e5fafd6205256fca3ed72efd33d366e4c340a497f79ee8',124093);
INSERT INTO heads VALUES('8a39f55fa6ff98df58288806c106a494a9c3a729f08056d0c6616ea6dfca7548',124094);
INSERT INTO heads VALUES('254357805e6aa8f45f7903786f892969c5f9038306961121e6381febf28ea8cd',124095);
INSERT INTO heads VALUES('fb752ccf8e94d678ab2c115f1f11cdea19fb336b95f8437e347782c8f1f12096',124096);
INSERT INTO heads VALUES('5fd7c87bf2e3bc1799215f318494b19ba39e0c8218683722d79de5fa7bc54242',124097);
INSERT INTO heads VALUES('cd1272a3ee6a94005b7992155a8b38728bd2eba104c59e56502e7c6e368a5491',124098);
INSERT INTO heads VALUES('9eddec8c009904eefd9d0781556984052b9b7bb8ca01bec41d5b8ebcfd64acb8',124099);
INSERT INTO heads VALUES('1e47606dd7e852f85b41b266304f4b859c1e278045f4f861bc5c2dc124569fa0',124100);
INSERT INTO heads VALUES('29131b6e00ec48c9bce7d257f499366640e3a2a30cdeafa5c6fe9759c6d50c8e',124101);
INSERT INTO heads VALUES('b34314f952089c91994f059a14496792ac465bf467fcbe158f0c1947fdde82c7',124102);
INSERT INTO heads VALUES('5e01f6aa4ffa82559c43ea84021944f5e67d314c1883a2d9b8d47a86cdbe9a66',124103);
INSERT INTO heads VALUES('c533df583a72b9e512f8d37be96eaf3d68903977af70d2612e66586e1668e22e',124104);
INSERT INTO heads VALUES('8d67447e2fade76e3d3c695329bb806df7a989c615bfa59427992ca4c47fd057',124105);
INSERT INTO heads VALUES('fd8f176a31a26ccb678f54582b1a6232f328e826d61f11becbb2afc3872cfa04',124106);
INSERT INTO heads VALUES('c2c77c291837810db840dbc50a46e9d0ee4f7ca46a03fd4092c22ea46cabb2bf',124107);
INSERT INTO heads VALUES('11ddd8ddfbb84e924b7e3e6a6fe4fa4a645ef4aa17d9f267abbfa12978a7c255',124108);
INSERT INTO heads VALUES('0014e99ffb39911c2faba80adbf1c4d63bef42e4c74ef7b5e7efe7e524903f03',124109);
INSERT INTO heads VALUES('23222249b769bf6acd7119758ae0b202868e8589ea1d5fdbf71272320577b6f1',124110);
INSERT INTO heads VALUES('f608b2b2fccbda8298ce88ab1354fdce52ca408bbd87b8b69364bfc6e6b8eb74',124111);
CREATE TABLE IF NOT EXISTS "users" ("email" varchar(255),"hashed_password" varchar(255),"created_at" datetime , PRIMARY KEY ("email"));
INSERT INTO users VALUES('notreal@fakeemail.ch','$2a$10$3WZ3t74.IKMOLtHKLqd.w.N7txPCEMYvuM/UmBrCoVujwBgBNBbTG','2019-04-06 13:11:51.438092-07:00');
CREATE TABLE IF NOT EXISTS "sessions" ("id" varchar(255),"last_used" datetime,"created_at" datetime , PRIMARY KEY ("id"));
INSERT INTO sessions VALUES('84a09bc42484425ca227c78e3b5c1354','2019-04-06 13:27:48.495896-07:00','2019-04-06 13:27:09.321455-07:00');
INSERT INTO sessions VALUES('2b5477f4e9ac4c2ab0dc707e4b64b48b','2019-04-06 13:27:20.594979-07:00','2019-04-06 13:27:20.586938-07:00');
INSERT INTO sessions VALUES('fa63e0244ec64f5190586988c90569be','2019-04-06 13:27:44.190323-07:00','2019-04-06 13:27:44.181992-07:00');
INSERT INTO sessions VALUES('853d4d0547d841b48fd1789da095ee66','2019-04-06 13:27:58.014984-07:00','2019-04-06 13:27:55.041772-07:00');
INSERT INTO sessions VALUES('e3f843ab43be4d2c87aa3b058a48a02b','2019-04-06 13:35:09.636265-07:00','2019-04-06 13:34:55.962566-07:00');
CREATE TABLE IF NOT EXISTS "encumbrances" ("id" integer primary key autoincrement,"payment" varchar(255),"expiration" bigint,"end_at" datetime,"oracles" text );
CREATE TABLE IF NOT EXISTS "service_agreements" ("id" varchar(255),"created_at" datetime,"encumbrance_id" integer,"request_body" varchar(255),"signature" varchar(255),"job_spec_id" varchar(36) REFERENCES job_specs(id) NOT NULL , PRIMARY KEY ("id"));
CREATE TABLE IF NOT EXISTS "keys" ("address" varchar(64),"json" text , PRIMARY KEY ("address"));
INSERT INTO keys VALUES('0x9CA9d2D5E04012C9Ed24C0e513C9bfAa4A2dD77f','{"version":3,"id":"f8c91297-5bf7-458e-b8e5-39e9c79d5f2a","address":"9ca9d2d5e04012c9ed24c0e513c9bfaa4a2dd77f","Crypto":{"ciphertext":"ee5391a20f42e0b11a0a0824ce5f047bfc4c1391a62184f48952a0ad05deb55b","cipherparams":{"iv":"4a27487d3892df5250fb7d1d9b5c00ac"},"cipher":"aes-128-ctr","kdf":"scrypt","kdfparams":{"dklen":32,"salt":"1839f222ed3759e0146252e9557f860ffff9575f8b4ba9c6c59ec40904c9580e","n":1024,"r":8,"p":1},"mac":"c7099685c6903529d9e6abf356c59ee9ae70cc9365b2b700ad183671c5009058"}}');
CREATE TABLE IF NOT EXISTS "bridge_types" ("name" varchar(255),"url" varchar(255),"confirmations" bigint,"incoming_token" varchar(255),"outgoing_token" varchar(255),"minimum_contract_payment" varchar(255) , PRIMARY KEY ("name"));
CREATE TABLE IF NOT EXISTS "sync_events" ("id" integer primary key autoincrement,"created_at" datetime,"updated_at" datetime,"body" varchar(255) );
CREATE TABLE IF NOT EXISTS "run_requests" ("id" integer primary key autoincrement,"request_id" varchar(255),"tx_hash" blob,"requester" blob,"created_at" datetime );
INSERT INTO run_requests VALUES(1,'0x965d2ff0eb872cfd425c44e5adaaecc7a7b06238d0eeef2a6dca8f7f3d48e904',X'2e412c7b7c7d109d2e4db78b42d89f5ef7f70eeea0ffbc3bc9ac331b85f1b114',X'5c15c62ffd5ef0621b6edf806436a1ab81781528','2019-04-06 13:27:24.007988-07:00');
INSERT INTO run_requests VALUES(2,NULL,X'7cafd5c0a891f2150e5d2ba5a7caed3078b81618efeaaca68d792d3509be951a',NULL,'2019-04-06 13:27:48.007877-07:00');
DELETE FROM sqlite_sequence;
INSERT INTO sqlite_sequence VALUES('initiators',3);
INSERT INTO sqlite_sequence VALUES('task_specs',7);
INSERT INTO sqlite_sequence VALUES('run_results',13);
INSERT INTO sqlite_sequence VALUES('run_requests',2);
INSERT INTO sqlite_sequence VALUES('txes',4);
CREATE INDEX idx_job_specs_start_at ON "job_specs"(start_at) ;
CREATE INDEX idx_job_specs_end_at ON "job_specs"(end_at) ;
CREATE INDEX idx_job_specs_deleted_at ON "job_specs"(deleted_at) ;
CREATE INDEX idx_job_specs_created_at ON "job_specs"(created_at) ;
CREATE INDEX idx_task_specs_deleted_at ON "task_specs"(deleted_at) ;
CREATE INDEX idx_task_specs_job_spec_id ON "task_specs"(job_spec_id) ;
CREATE INDEX idx_task_specs_type ON "task_specs"("type") ;
CREATE INDEX idx_job_runs_job_spec_id ON "job_runs"(job_spec_id) ;
CREATE INDEX idx_job_runs_status ON "job_runs"("status") ;
CREATE INDEX idx_job_runs_created_at ON "job_runs"(created_at) ;
CREATE INDEX idx_job_runs_deleted_at ON "job_runs"(deleted_at) ;
CREATE INDEX idx_task_runs_task_spec_id ON "task_runs"(task_spec_id) ;
CREATE INDEX idx_task_runs_created_at ON "task_runs"(created_at) ;
CREATE INDEX idx_task_runs_job_run_id ON "task_runs"(job_run_id) ;
CREATE INDEX idx_initiators_created_at ON "initiators"(created_at) ;
CREATE INDEX idx_initiators_address ON "initiators"("address") ;
CREATE INDEX idx_initiators_deleted_at ON "initiators"(deleted_at) ;
CREATE INDEX idx_initiators_job_spec_id ON "initiators"(job_spec_id) ;
CREATE INDEX idx_initiators_type ON "initiators"("type") ;
CREATE INDEX idx_txes_from ON "txes"("from") ;
CREATE INDEX idx_txes_nonce ON "txes"("nonce") ;
CREATE INDEX idx_tx_attempts_tx_id ON "tx_attempts"(tx_id) ;
CREATE INDEX idx_tx_attempts_created_at ON "tx_attempts"(created_at) ;
CREATE INDEX idx_heads_number ON "heads"("number") ;
CREATE INDEX idx_users_created_at ON "users"(created_at) ;
CREATE INDEX idx_sessions_last_used ON "sessions"(last_used) ;
CREATE INDEX idx_sessions_created_at ON "sessions"(created_at) ;
CREATE INDEX idx_service_agreements_created_at ON "service_agreements"(created_at) ;
CREATE INDEX idx_service_agreements_job_spec_id ON "service_agreements"(job_spec_id) ;
COMMIT;
